{
	"data": {
		"bytecode": {
			"linkReferences": {},
			"object": "6080604052600060015534801561001557600080fd5b50336000806101000a81548173ffffffffffffffffffffffffffffffffffffffff021916908373ffffffffffffffffffffffffffffffffffffffff160217905550610963806100656000396000f3fe608060405234801561001057600080fd5b50600436106100415760003560e01c80637f6862fb14610046578063cd9f839814610062578063fe615f2a14610094575b600080fd5b610060600480360381019061005b919061053d565b6100b2565b005b61007c60048036038101906100779190610510565b6101b9565b60405161008b9392919061063f565b60405180910390f35b61009c6102f3565b6040516100a99190610624565b60405180910390f35b3373ffffffffffffffffffffffffffffffffffffffff1660008054906101000a900473ffffffffffffffffffffffffffffffffffffffff1673ffffffffffffffffffffffffffffffffffffffff161461010a57600080fd5b60018054610118919061071c565b60018190555060405180608001604052808581526020018481526020018381526020018281525060026000600154815260200190815260200160002060008201518160000155602082015181600101908051906020019061017a9291906102f9565b5060408201518160020190805190602001906101979291906102f9565b506060820151816003019060026101af92919061037f565b5090505050505050565b60026020528060005260406000206000915090508060000154908060010180546101e2906107fc565b80601f016020809104026020016040519081016040528092919081815260200182805461020e906107fc565b801561025b5780601f106102305761010080835404028352916020019161025b565b820191906000526020600020905b81548152906001019060200180831161023e57829003601f168201915b505050505090806002018054610270906107fc565b80601f016020809104026020016040519081016040528092919081815260200182805461029c906107fc565b80156102e95780601f106102be576101008083540402835291602001916102e9565b820191906000526020600020905b8154815290600101906020018083116102cc57829003601f168201915b5050505050905083565b60015481565b828054610305906107fc565b90600052602060002090601f016020900481019282610327576000855561036e565b82601f1061034057805160ff191683800117855561036e565b8280016001018555821561036e579182015b8281111561036d578251825591602001919060010190610352565b5b50905061037b91906103bf565b5090565b82600281019282156103ae579160200282015b828111156103ad578251825591602001919060010190610392565b5b5090506103bb91906103dc565b5090565b5b808211156103d85760008160009055506001016103c0565b5090565b5b808211156103f55760008160009055506001016103dd565b5090565b600061040c610407846106a9565b610684565b90508082856020860282011115610426576104256108f1565b5b60005b85811015610456578161043c88826104cd565b845260208401935060208301925050600181019050610429565b5050509392505050565b600061047361046e846106cf565b610684565b90508281526020810184848401111561048f5761048e6108f6565b5b61049a8482856107ba565b509392505050565b600082601f8301126104b7576104b66108ec565b5b60026104c48482856103f9565b91505092915050565b6000813590506104dc81610916565b92915050565b600082601f8301126104f7576104f66108ec565b5b8135610507848260208601610460565b91505092915050565b60006020828403121561052657610525610900565b5b6000610534848285016104cd565b91505092915050565b60008060008060a0858703121561055757610556610900565b5b6000610565878288016104cd565b945050602085013567ffffffffffffffff811115610586576105856108fb565b5b610592878288016104e2565b935050604085013567ffffffffffffffff8111156105b3576105b26108fb565b5b6105bf878288016104e2565b92505060606105d0878288016104a2565b91505092959194509250565b6105e5816107b0565b82525050565b60006105f682610700565b610600818561070b565b93506106108185602086016107c9565b61061981610905565b840191505092915050565b600060208201905061063960008301846105dc565b92915050565b600060608201905061065460008301866105dc565b818103602083015261066681856105eb565b9050818103604083015261067a81846105eb565b9050949350505050565b600061068e61069f565b905061069a828261082e565b919050565b6000604051905090565b600067ffffffffffffffff8211156106c4576106c36108bd565b5b602082029050919050565b600067ffffffffffffffff8211156106ea576106e96108bd565b5b6106f382610905565b9050602081019050919050565b600081519050919050565b600082825260208201905092915050565b6000610727826107b0565b9150610732836107b0565b9250817f7fffffffffffffffffffffffffffffffffffffffffffffffffffffffffffffff0383136000831215161561076d5761076c61085f565b5b817f80000000000000000000000000000000000000000000000000000000000000000383126000831216156107a5576107a461085f565b5b828201905092915050565b6000819050919050565b82818337600083830152505050565b60005b838110156107e75780820151818401526020810190506107cc565b838111156107f6576000848401525b50505050565b6000600282049050600182168061081457607f821691505b602082108114156108285761082761088e565b5b50919050565b61083782610905565b810181811067ffffffffffffffff82111715610856576108556108bd565b5b80604052505050565b7f4e487b7100000000000000000000000000000000000000000000000000000000600052601160045260246000fd5b7f4e487b7100000000000000000000000000000000000000000000000000000000600052602260045260246000fd5b7f4e487b7100000000000000000000000000000000000000000000000000000000600052604160045260246000fd5b600080fd5b600080fd5b600080fd5b600080fd5b600080fd5b6000601f19601f8301169050919050565b61091f816107b0565b811461092a57600080fd5b5056fea26469706673582212207096cafcfa76cddd8b63367611d4e48aa28fa4789c49fdb48c78622b41ebbf0864736f6c63430008060033",
			"opcodes": "PUSH1 0x80 PUSH1 0x40 MSTORE PUSH1 0x0 PUSH1 0x1 SSTORE CALLVALUE DUP1 ISZERO PUSH2 0x15 JUMPI PUSH1 0x0 DUP1 REVERT JUMPDEST POP CALLER PUSH1 0x0 DUP1 PUSH2 0x100 EXP DUP2 SLOAD DUP2 PUSH20 0xFFFFFFFFFFFFFFFFFFFFFFFFFFFFFFFFFFFFFFFF MUL NOT AND SWAP1 DUP4 PUSH20 0xFFFFFFFFFFFFFFFFFFFFFFFFFFFFFFFFFFFFFFFF AND MUL OR SWAP1 SSTORE POP PUSH2 0x963 DUP1 PUSH2 0x65 PUSH1 0x0 CODECOPY PUSH1 0x0 RETURN INVALID PUSH1 0x80 PUSH1 0x40 MSTORE CALLVALUE DUP1 ISZERO PUSH2 0x10 JUMPI PUSH1 0x0 DUP1 REVERT JUMPDEST POP PUSH1 0x4 CALLDATASIZE LT PUSH2 0x41 JUMPI PUSH1 0x0 CALLDATALOAD PUSH1 0xE0 SHR DUP1 PUSH4 0x7F6862FB EQ PUSH2 0x46 JUMPI DUP1 PUSH4 0xCD9F8398 EQ PUSH2 0x62 JUMPI DUP1 PUSH4 0xFE615F2A EQ PUSH2 0x94 JUMPI JUMPDEST PUSH1 0x0 DUP1 REVERT JUMPDEST PUSH2 0x60 PUSH1 0x4 DUP1 CALLDATASIZE SUB DUP2 ADD SWAP1 PUSH2 0x5B SWAP2 SWAP1 PUSH2 0x53D JUMP JUMPDEST PUSH2 0xB2 JUMP JUMPDEST STOP JUMPDEST PUSH2 0x7C PUSH1 0x4 DUP1 CALLDATASIZE SUB DUP2 ADD SWAP1 PUSH2 0x77 SWAP2 SWAP1 PUSH2 0x510 JUMP JUMPDEST PUSH2 0x1B9 JUMP JUMPDEST PUSH1 0x40 MLOAD PUSH2 0x8B SWAP4 SWAP3 SWAP2 SWAP1 PUSH2 0x63F JUMP JUMPDEST PUSH1 0x40 MLOAD DUP1 SWAP2 SUB SWAP1 RETURN JUMPDEST PUSH2 0x9C PUSH2 0x2F3 JUMP JUMPDEST PUSH1 0x40 MLOAD PUSH2 0xA9 SWAP2 SWAP1 PUSH2 0x624 JUMP JUMPDEST PUSH1 0x40 MLOAD DUP1 SWAP2 SUB SWAP1 RETURN JUMPDEST CALLER PUSH20 0xFFFFFFFFFFFFFFFFFFFFFFFFFFFFFFFFFFFFFFFF AND PUSH1 0x0 DUP1 SLOAD SWAP1 PUSH2 0x100 EXP SWAP1 DIV PUSH20 0xFFFFFFFFFFFFFFFFFFFFFFFFFFFFFFFFFFFFFFFF AND PUSH20 0xFFFFFFFFFFFFFFFFFFFFFFFFFFFFFFFFFFFFFFFF AND EQ PUSH2 0x10A JUMPI PUSH1 0x0 DUP1 REVERT JUMPDEST PUSH1 0x1 DUP1 SLOAD PUSH2 0x118 SWAP2 SWAP1 PUSH2 0x71C JUMP JUMPDEST PUSH1 0x1 DUP2 SWAP1 SSTORE POP PUSH1 0x40 MLOAD DUP1 PUSH1 0x80 ADD PUSH1 0x40 MSTORE DUP1 DUP6 DUP2 MSTORE PUSH1 0x20 ADD DUP5 DUP2 MSTORE PUSH1 0x20 ADD DUP4 DUP2 MSTORE PUSH1 0x20 ADD DUP3 DUP2 MSTORE POP PUSH1 0x2 PUSH1 0x0 PUSH1 0x1 SLOAD DUP2 MSTORE PUSH1 0x20 ADD SWAP1 DUP2 MSTORE PUSH1 0x20 ADD PUSH1 0x0 KECCAK256 PUSH1 0x0 DUP3 ADD MLOAD DUP2 PUSH1 0x0 ADD SSTORE PUSH1 0x20 DUP3 ADD MLOAD DUP2 PUSH1 0x1 ADD SWAP1 DUP1 MLOAD SWAP1 PUSH1 0x20 ADD SWAP1 PUSH2 0x17A SWAP3 SWAP2 SWAP1 PUSH2 0x2F9 JUMP JUMPDEST POP PUSH1 0x40 DUP3 ADD MLOAD DUP2 PUSH1 0x2 ADD SWAP1 DUP1 MLOAD SWAP1 PUSH1 0x20 ADD SWAP1 PUSH2 0x197 SWAP3 SWAP2 SWAP1 PUSH2 0x2F9 JUMP JUMPDEST POP PUSH1 0x60 DUP3 ADD MLOAD DUP2 PUSH1 0x3 ADD SWAP1 PUSH1 0x2 PUSH2 0x1AF SWAP3 SWAP2 SWAP1 PUSH2 0x37F JUMP JUMPDEST POP SWAP1 POP POP POP POP POP POP JUMP JUMPDEST PUSH1 0x2 PUSH1 0x20 MSTORE DUP1 PUSH1 0x0 MSTORE PUSH1 0x40 PUSH1 0x0 KECCAK256 PUSH1 0x0 SWAP2 POP SWAP1 POP DUP1 PUSH1 0x0 ADD SLOAD SWAP1 DUP1 PUSH1 0x1 ADD DUP1 SLOAD PUSH2 0x1E2 SWAP1 PUSH2 0x7FC JUMP JUMPDEST DUP1 PUSH1 0x1F ADD PUSH1 0x20 DUP1 SWAP2 DIV MUL PUSH1 0x20 ADD PUSH1 0x40 MLOAD SWAP1 DUP2 ADD PUSH1 0x40 MSTORE DUP1 SWAP3 SWAP2 SWAP1 DUP2 DUP2 MSTORE PUSH1 0x20 ADD DUP3 DUP1 SLOAD PUSH2 0x20E SWAP1 PUSH2 0x7FC JUMP JUMPDEST DUP1 ISZERO PUSH2 0x25B JUMPI DUP1 PUSH1 0x1F LT PUSH2 0x230 JUMPI PUSH2 0x100 DUP1 DUP4 SLOAD DIV MUL DUP4 MSTORE SWAP2 PUSH1 0x20 ADD SWAP2 PUSH2 0x25B JUMP JUMPDEST DUP3 ADD SWAP2 SWAP1 PUSH1 0x0 MSTORE PUSH1 0x20 PUSH1 0x0 KECCAK256 SWAP1 JUMPDEST DUP2 SLOAD DUP2 MSTORE SWAP1 PUSH1 0x1 ADD SWAP1 PUSH1 0x20 ADD DUP1 DUP4 GT PUSH2 0x23E JUMPI DUP3 SWAP1 SUB PUSH1 0x1F AND DUP3 ADD SWAP2 JUMPDEST POP POP POP POP POP SWAP1 DUP1 PUSH1 0x2 ADD DUP1 SLOAD PUSH2 0x270 SWAP1 PUSH2 0x7FC JUMP JUMPDEST DUP1 PUSH1 0x1F ADD PUSH1 0x20 DUP1 SWAP2 DIV MUL PUSH1 0x20 ADD PUSH1 0x40 MLOAD SWAP1 DUP2 ADD PUSH1 0x40 MSTORE DUP1 SWAP3 SWAP2 SWAP1 DUP2 DUP2 MSTORE PUSH1 0x20 ADD DUP3 DUP1 SLOAD PUSH2 0x29C SWAP1 PUSH2 0x7FC JUMP JUMPDEST DUP1 ISZERO PUSH2 0x2E9 JUMPI DUP1 PUSH1 0x1F LT PUSH2 0x2BE JUMPI PUSH2 0x100 DUP1 DUP4 SLOAD DIV MUL DUP4 MSTORE SWAP2 PUSH1 0x20 ADD SWAP2 PUSH2 0x2E9 JUMP JUMPDEST DUP3 ADD SWAP2 SWAP1 PUSH1 0x0 MSTORE PUSH1 0x20 PUSH1 0x0 KECCAK256 SWAP1 JUMPDEST DUP2 SLOAD DUP2 MSTORE SWAP1 PUSH1 0x1 ADD SWAP1 PUSH1 0x20 ADD DUP1 DUP4 GT PUSH2 0x2CC JUMPI DUP3 SWAP1 SUB PUSH1 0x1F AND DUP3 ADD SWAP2 JUMPDEST POP POP POP POP POP SWAP1 POP DUP4 JUMP JUMPDEST PUSH1 0x1 SLOAD DUP2 JUMP JUMPDEST DUP3 DUP1 SLOAD PUSH2 0x305 SWAP1 PUSH2 0x7FC JUMP JUMPDEST SWAP1 PUSH1 0x0 MSTORE PUSH1 0x20 PUSH1 0x0 KECCAK256 SWAP1 PUSH1 0x1F ADD PUSH1 0x20 SWAP1 DIV DUP2 ADD SWAP3 DUP3 PUSH2 0x327 JUMPI PUSH1 0x0 DUP6 SSTORE PUSH2 0x36E JUMP JUMPDEST DUP3 PUSH1 0x1F LT PUSH2 0x340 JUMPI DUP1 MLOAD PUSH1 0xFF NOT AND DUP4 DUP1 ADD OR DUP6 SSTORE PUSH2 0x36E JUMP JUMPDEST DUP3 DUP1 ADD PUSH1 0x1 ADD DUP6 SSTORE DUP3 ISZERO PUSH2 0x36E JUMPI SWAP2 DUP3 ADD JUMPDEST DUP3 DUP2 GT ISZERO PUSH2 0x36D JUMPI DUP3 MLOAD DUP3 SSTORE SWAP2 PUSH1 0x20 ADD SWAP2 SWAP1 PUSH1 0x1 ADD SWAP1 PUSH2 0x352 JUMP JUMPDEST JUMPDEST POP SWAP1 POP PUSH2 0x37B SWAP2 SWAP1 PUSH2 0x3BF JUMP JUMPDEST POP SWAP1 JUMP JUMPDEST DUP3 PUSH1 0x2 DUP2 ADD SWAP3 DUP3 ISZERO PUSH2 0x3AE JUMPI SWAP2 PUSH1 0x20 MUL DUP3 ADD JUMPDEST DUP3 DUP2 GT ISZERO PUSH2 0x3AD JUMPI DUP3 MLOAD DUP3 SSTORE SWAP2 PUSH1 0x20 ADD SWAP2 SWAP1 PUSH1 0x1 ADD SWAP1 PUSH2 0x392 JUMP JUMPDEST JUMPDEST POP SWAP1 POP PUSH2 0x3BB SWAP2 SWAP1 PUSH2 0x3DC JUMP JUMPDEST POP SWAP1 JUMP JUMPDEST JUMPDEST DUP1 DUP3 GT ISZERO PUSH2 0x3D8 JUMPI PUSH1 0x0 DUP2 PUSH1 0x0 SWAP1 SSTORE POP PUSH1 0x1 ADD PUSH2 0x3C0 JUMP JUMPDEST POP SWAP1 JUMP JUMPDEST JUMPDEST DUP1 DUP3 GT ISZERO PUSH2 0x3F5 JUMPI PUSH1 0x0 DUP2 PUSH1 0x0 SWAP1 SSTORE POP PUSH1 0x1 ADD PUSH2 0x3DD JUMP JUMPDEST POP SWAP1 JUMP JUMPDEST PUSH1 0x0 PUSH2 0x40C PUSH2 0x407 DUP5 PUSH2 0x6A9 JUMP JUMPDEST PUSH2 0x684 JUMP JUMPDEST SWAP1 POP DUP1 DUP3 DUP6 PUSH1 0x20 DUP7 MUL DUP3 ADD GT ISZERO PUSH2 0x426 JUMPI PUSH2 0x425 PUSH2 0x8F1 JUMP JUMPDEST JUMPDEST PUSH1 0x0 JUMPDEST DUP6 DUP2 LT ISZERO PUSH2 0x456 JUMPI DUP2 PUSH2 0x43C DUP9 DUP3 PUSH2 0x4CD JUMP JUMPDEST DUP5 MSTORE PUSH1 0x20 DUP5 ADD SWAP4 POP PUSH1 0x20 DUP4 ADD SWAP3 POP POP PUSH1 0x1 DUP2 ADD SWAP1 POP PUSH2 0x429 JUMP JUMPDEST POP POP POP SWAP4 SWAP3 POP POP POP JUMP JUMPDEST PUSH1 0x0 PUSH2 0x473 PUSH2 0x46E DUP5 PUSH2 0x6CF JUMP JUMPDEST PUSH2 0x684 JUMP JUMPDEST SWAP1 POP DUP3 DUP2 MSTORE PUSH1 0x20 DUP2 ADD DUP5 DUP5 DUP5 ADD GT ISZERO PUSH2 0x48F JUMPI PUSH2 0x48E PUSH2 0x8F6 JUMP JUMPDEST JUMPDEST PUSH2 0x49A DUP5 DUP3 DUP6 PUSH2 0x7BA JUMP JUMPDEST POP SWAP4 SWAP3 POP POP POP JUMP JUMPDEST PUSH1 0x0 DUP3 PUSH1 0x1F DUP4 ADD SLT PUSH2 0x4B7 JUMPI PUSH2 0x4B6 PUSH2 0x8EC JUMP JUMPDEST JUMPDEST PUSH1 0x2 PUSH2 0x4C4 DUP5 DUP3 DUP6 PUSH2 0x3F9 JUMP JUMPDEST SWAP2 POP POP SWAP3 SWAP2 POP POP JUMP JUMPDEST PUSH1 0x0 DUP2 CALLDATALOAD SWAP1 POP PUSH2 0x4DC DUP2 PUSH2 0x916 JUMP JUMPDEST SWAP3 SWAP2 POP POP JUMP JUMPDEST PUSH1 0x0 DUP3 PUSH1 0x1F DUP4 ADD SLT PUSH2 0x4F7 JUMPI PUSH2 0x4F6 PUSH2 0x8EC JUMP JUMPDEST JUMPDEST DUP2 CALLDATALOAD PUSH2 0x507 DUP5 DUP3 PUSH1 0x20 DUP7 ADD PUSH2 0x460 JUMP JUMPDEST SWAP2 POP POP SWAP3 SWAP2 POP POP JUMP JUMPDEST PUSH1 0x0 PUSH1 0x20 DUP3 DUP5 SUB SLT ISZERO PUSH2 0x526 JUMPI PUSH2 0x525 PUSH2 0x900 JUMP JUMPDEST JUMPDEST PUSH1 0x0 PUSH2 0x534 DUP5 DUP3 DUP6 ADD PUSH2 0x4CD JUMP JUMPDEST SWAP2 POP POP SWAP3 SWAP2 POP POP JUMP JUMPDEST PUSH1 0x0 DUP1 PUSH1 0x0 DUP1 PUSH1 0xA0 DUP6 DUP8 SUB SLT ISZERO PUSH2 0x557 JUMPI PUSH2 0x556 PUSH2 0x900 JUMP JUMPDEST JUMPDEST PUSH1 0x0 PUSH2 0x565 DUP8 DUP3 DUP9 ADD PUSH2 0x4CD JUMP JUMPDEST SWAP5 POP POP PUSH1 0x20 DUP6 ADD CALLDATALOAD PUSH8 0xFFFFFFFFFFFFFFFF DUP2 GT ISZERO PUSH2 0x586 JUMPI PUSH2 0x585 PUSH2 0x8FB JUMP JUMPDEST JUMPDEST PUSH2 0x592 DUP8 DUP3 DUP9 ADD PUSH2 0x4E2 JUMP JUMPDEST SWAP4 POP POP PUSH1 0x40 DUP6 ADD CALLDATALOAD PUSH8 0xFFFFFFFFFFFFFFFF DUP2 GT ISZERO PUSH2 0x5B3 JUMPI PUSH2 0x5B2 PUSH2 0x8FB JUMP JUMPDEST JUMPDEST PUSH2 0x5BF DUP8 DUP3 DUP9 ADD PUSH2 0x4E2 JUMP JUMPDEST SWAP3 POP POP PUSH1 0x60 PUSH2 0x5D0 DUP8 DUP3 DUP9 ADD PUSH2 0x4A2 JUMP JUMPDEST SWAP2 POP POP SWAP3 SWAP6 SWAP2 SWAP5 POP SWAP3 POP JUMP JUMPDEST PUSH2 0x5E5 DUP2 PUSH2 0x7B0 JUMP JUMPDEST DUP3 MSTORE POP POP JUMP JUMPDEST PUSH1 0x0 PUSH2 0x5F6 DUP3 PUSH2 0x700 JUMP JUMPDEST PUSH2 0x600 DUP2 DUP6 PUSH2 0x70B JUMP JUMPDEST SWAP4 POP PUSH2 0x610 DUP2 DUP6 PUSH1 0x20 DUP7 ADD PUSH2 0x7C9 JUMP JUMPDEST PUSH2 0x619 DUP2 PUSH2 0x905 JUMP JUMPDEST DUP5 ADD SWAP2 POP POP SWAP3 SWAP2 POP POP JUMP JUMPDEST PUSH1 0x0 PUSH1 0x20 DUP3 ADD SWAP1 POP PUSH2 0x639 PUSH1 0x0 DUP4 ADD DUP5 PUSH2 0x5DC JUMP JUMPDEST SWAP3 SWAP2 POP POP JUMP JUMPDEST PUSH1 0x0 PUSH1 0x60 DUP3 ADD SWAP1 POP PUSH2 0x654 PUSH1 0x0 DUP4 ADD DUP7 PUSH2 0x5DC JUMP JUMPDEST DUP2 DUP2 SUB PUSH1 0x20 DUP4 ADD MSTORE PUSH2 0x666 DUP2 DUP6 PUSH2 0x5EB JUMP JUMPDEST SWAP1 POP DUP2 DUP2 SUB PUSH1 0x40 DUP4 ADD MSTORE PUSH2 0x67A DUP2 DUP5 PUSH2 0x5EB JUMP JUMPDEST SWAP1 POP SWAP5 SWAP4 POP POP POP POP JUMP JUMPDEST PUSH1 0x0 PUSH2 0x68E PUSH2 0x69F JUMP JUMPDEST SWAP1 POP PUSH2 0x69A DUP3 DUP3 PUSH2 0x82E JUMP JUMPDEST SWAP2 SWAP1 POP JUMP JUMPDEST PUSH1 0x0 PUSH1 0x40 MLOAD SWAP1 POP SWAP1 JUMP JUMPDEST PUSH1 0x0 PUSH8 0xFFFFFFFFFFFFFFFF DUP3 GT ISZERO PUSH2 0x6C4 JUMPI PUSH2 0x6C3 PUSH2 0x8BD JUMP JUMPDEST JUMPDEST PUSH1 0x20 DUP3 MUL SWAP1 POP SWAP2 SWAP1 POP JUMP JUMPDEST PUSH1 0x0 PUSH8 0xFFFFFFFFFFFFFFFF DUP3 GT ISZERO PUSH2 0x6EA JUMPI PUSH2 0x6E9 PUSH2 0x8BD JUMP JUMPDEST JUMPDEST PUSH2 0x6F3 DUP3 PUSH2 0x905 JUMP JUMPDEST SWAP1 POP PUSH1 0x20 DUP2 ADD SWAP1 POP SWAP2 SWAP1 POP JUMP JUMPDEST PUSH1 0x0 DUP2 MLOAD SWAP1 POP SWAP2 SWAP1 POP JUMP JUMPDEST PUSH1 0x0 DUP3 DUP3 MSTORE PUSH1 0x20 DUP3 ADD SWAP1 POP SWAP3 SWAP2 POP POP JUMP JUMPDEST PUSH1 0x0 PUSH2 0x727 DUP3 PUSH2 0x7B0 JUMP JUMPDEST SWAP2 POP PUSH2 0x732 DUP4 PUSH2 0x7B0 JUMP JUMPDEST SWAP3 POP DUP2 PUSH32 0x7FFFFFFFFFFFFFFFFFFFFFFFFFFFFFFFFFFFFFFFFFFFFFFFFFFFFFFFFFFFFFFF SUB DUP4 SGT PUSH1 0x0 DUP4 SLT ISZERO AND ISZERO PUSH2 0x76D JUMPI PUSH2 0x76C PUSH2 0x85F JUMP JUMPDEST JUMPDEST DUP2 PUSH32 0x8000000000000000000000000000000000000000000000000000000000000000 SUB DUP4 SLT PUSH1 0x0 DUP4 SLT AND ISZERO PUSH2 0x7A5 JUMPI PUSH2 0x7A4 PUSH2 0x85F JUMP JUMPDEST JUMPDEST DUP3 DUP3 ADD SWAP1 POP SWAP3 SWAP2 POP POP JUMP JUMPDEST PUSH1 0x0 DUP2 SWAP1 POP SWAP2 SWAP1 POP JUMP JUMPDEST DUP3 DUP2 DUP4 CALLDATACOPY PUSH1 0x0 DUP4 DUP4 ADD MSTORE POP POP POP JUMP JUMPDEST PUSH1 0x0 JUMPDEST DUP4 DUP2 LT ISZERO PUSH2 0x7E7 JUMPI DUP1 DUP3 ADD MLOAD DUP2 DUP5 ADD MSTORE PUSH1 0x20 DUP2 ADD SWAP1 POP PUSH2 0x7CC JUMP JUMPDEST DUP4 DUP2 GT ISZERO PUSH2 0x7F6 JUMPI PUSH1 0x0 DUP5 DUP5 ADD MSTORE JUMPDEST POP POP POP POP JUMP JUMPDEST PUSH1 0x0 PUSH1 0x2 DUP3 DIV SWAP1 POP PUSH1 0x1 DUP3 AND DUP1 PUSH2 0x814 JUMPI PUSH1 0x7F DUP3 AND SWAP2 POP JUMPDEST PUSH1 0x20 DUP3 LT DUP2 EQ ISZERO PUSH2 0x828 JUMPI PUSH2 0x827 PUSH2 0x88E JUMP JUMPDEST JUMPDEST POP SWAP2 SWAP1 POP JUMP JUMPDEST PUSH2 0x837 DUP3 PUSH2 0x905 JUMP JUMPDEST DUP2 ADD DUP2 DUP2 LT PUSH8 0xFFFFFFFFFFFFFFFF DUP3 GT OR ISZERO PUSH2 0x856 JUMPI PUSH2 0x855 PUSH2 0x8BD JUMP JUMPDEST JUMPDEST DUP1 PUSH1 0x40 MSTORE POP POP POP JUMP JUMPDEST PUSH32 0x4E487B7100000000000000000000000000000000000000000000000000000000 PUSH1 0x0 MSTORE PUSH1 0x11 PUSH1 0x4 MSTORE PUSH1 0x24 PUSH1 0x0 REVERT JUMPDEST PUSH32 0x4E487B7100000000000000000000000000000000000000000000000000000000 PUSH1 0x0 MSTORE PUSH1 0x22 PUSH1 0x4 MSTORE PUSH1 0x24 PUSH1 0x0 REVERT JUMPDEST PUSH32 0x4E487B7100000000000000000000000000000000000000000000000000000000 PUSH1 0x0 MSTORE PUSH1 0x41 PUSH1 0x4 MSTORE PUSH1 0x24 PUSH1 0x0 REVERT JUMPDEST PUSH1 0x0 DUP1 REVERT JUMPDEST PUSH1 0x0 DUP1 REVERT JUMPDEST PUSH1 0x0 DUP1 REVERT JUMPDEST PUSH1 0x0 DUP1 REVERT JUMPDEST PUSH1 0x0 DUP1 REVERT JUMPDEST PUSH1 0x0 PUSH1 0x1F NOT PUSH1 0x1F DUP4 ADD AND SWAP1 POP SWAP2 SWAP1 POP JUMP JUMPDEST PUSH2 0x91F DUP2 PUSH2 0x7B0 JUMP JUMPDEST DUP2 EQ PUSH2 0x92A JUMPI PUSH1 0x0 DUP1 REVERT JUMPDEST POP JUMP INVALID LOG2 PUSH5 0x6970667358 0x22 SLT KECCAK256 PUSH17 0x96CAFCFA76CDDD8B63367611D4E48AA28F LOG4 PUSH25 0x9C49FDB48C78622B41EBBF0864736F6C634300080600330000 "
		},
		"gasEstimates": {
			"creation": {
				"codeDepositCost": "480600",
				"executionCost": "29790",
				"totalCost": "510390"
			},
			"external": {
				"addNewRecords(int256,string,string,int256[2])": "infinite",
				"stdCount()": "2451",
				"stdRecords(int256)": "infinite"
			}
		},
		"methodIdentifiers": {
			"addNewRecords(int256,string,string,int256[2])": "7f6862fb",
			"stdCount()": "fe615f2a",
			"stdRecords(int256)": "cd9f8398"
		}
	},
	"abi": [
		{
			"inputs": [],
			"stateMutability": "nonpayable",
			"type": "constructor"
		},
		{
			"inputs": [
				{
					"internalType": "int256",
					"name": "_ID",
					"type": "int256"
				},
				{
					"internalType": "string",
					"name": "_fName",
					"type": "string"
				},
				{
					"internalType": "string",
					"name": "_lName",
					"type": "string"
				},
				{
					"internalType": "int256[2]",
					"name": "_marks",
					"type": "int256[2]"
				}
			],
			"name": "addNewRecords",
			"outputs": [],
			"stateMutability": "nonpayable",
			"type": "function"
		},
		{
			"inputs": [],
			"name": "stdCount",
			"outputs": [
				{
					"internalType": "int256",
					"name": "",
					"type": "int256"
				}
			],
			"stateMutability": "view",
			"type": "function"
		},
		{
			"inputs": [
				{
					"internalType": "int256",
					"name": "",
					"type": "int256"
				}
			],
			"name": "stdRecords",
			"outputs": [
				{
					"internalType": "int256",
					"name": "ID",
					"type": "int256"
				},
				{
					"internalType": "string",
					"name": "fName",
					"type": "string"
				},
				{
					"internalType": "string",
					"name": "lName",
					"type": "string"
				}
			],
			"stateMutability": "view",
			"type": "function"
		}
	]
}